:100679007F031206A48F49E549B405077F021207D3
:10068900BE80EDE549B406077F021207CD80E1E59A
:0906990049B409DC7F021207DDFF
:0206A20080D501
:01000A0022D3
:0B000E0090000712010D89828A8322F6
:03000B00020330BD
:10033000C0E0C0F0C083C082C0D075D000C000C093
:1003400001C002C003C004C005C006C007AB20AA9C
:1003500021A922120647AB20AA21A922C003C0026C
:10036000C00112000ED001D002D003120141D0070B
:10037000D006D005D004D003D002D001D000D0D018
:09038000D082D083D0F0D0E0322D
:03001B0002038954
:10038900C0E0C0F0C083C082C0D075D000C000C03A
:1003990001C002C003C004C005C006C007AB23AA40
:1003A90024A925120647AB23AA24A925C003C00204
:1003B900C00112000ED001D002D003120141D007B2
:1003C900D006D005D004D003D002D001D000D0D0BF
:0903D900D082D083D0F0D0E032D4
:06074D00014C01014D0109
:1003E200E4F54EBF0203754C01E54C701075B0FF89
:1003F200AEB0BEFF05754C0180037F002275B0FFD1
:10040200AEB0BEFF037F00227F0A7E001206EAAE74
:10041200B0EE2409601424FC600D24FE6006147002
:0F0422000C7F01227F02227F03227F04227F00B2
:0104310022A8
:10060D0075B00FE5B0540FFFBF0F037F002275B01B
:10061D000F7F027E001206EAE5B0540F24F9601434
:10062D0024FC600D24FE600614700C7F05227F09EA
:09063D00227F0D227F11227F00B3
:010646002291
:020432008F4BEE
:10043400E4FFE54B70012275B0F0E5B054F0FFBF66
:10044400F0037F002275B0F07F017E001206EAE51A
:10045400B054F02490601A24C0601024E060072493
:10046400F07014AF4B22E54B04FF22E54B2402FF4E
:0904740022E54B2403FF227F0066
:01047D00225C
:0607B80012060D020432DE
:1006A400E4FE754AFFBF0203754D01E54D7010125B
:1006B40007B8AE07EE7005754D0180037F00221266
:0206C40007B875
:0106C6002211
:0507BE00EFF45290224F
:0407CD00EF42902245
:0407D100E4F5902299
:0407D5007590FF22FA
:0407D9006390FF2208
:0507C3008F4F8D902214
:0507C8008F50AF9022EC
:0407DD00EF62902215
:0E079A00ED1460060470060207BE1207CD22A1
:10072800EFC313FEE5905FFFA806088002C313D845
:03073800FCFF22A1
:1006EA00E4FDFCC3ED9FEC9E5015E4FBFA0BBB0046
:0F06FA00010AEB64724A70F50DBD00010C80E43B
:0107090022CD
:0A0753000320000008032300001437
:10059200900005120086FFAEF0E4FCFDFB7AC07904
:1005A200A8F812054EE47B0CFAF9F80200BEAB3D46
:1005B200AA3EA93F22900001020037AB30AA31A91E
:1005C2003222900002020037900005120086FF22BC
:0604C4008B268A2789281F
:1004CA00E4FFFEF529F52A1205B714600804701036
:1004DA00120592800BAB26AA27A9281205CAAEF0EC
:1004EA00C374FF9FF52A741F9EF529AB26AA27A974
:0F04FA002890000A120064E52A90000B020064AB
:060509008B2B8A2C892DCA
:10050F00E4FFFEF52EF52F1205B7146008047010E6
:10051F00120592800BAB2BAA2CA92D1205CAAEF097
:10052F00C374FF9FF52F74FF9EF52EAB2BAA2CA93A
:0F053F002D90000A120064E52F90000B0200645B
:0605D2008B358A368937E3
:1005D800E4FFF5381205B714600804700E1205928E
:1005E8008009AB35AA36A9371205CAC374FF9FF52F
:1005F80038AB35AA36A93790000B12006490000A70
:05060800E5380200646A
:0602C4008B308A31893203
:1002CA00E4F533F5341205C414600D14600F24FEEE
:1002DA0060102404704F80421205BD80451205BD8E
:1002EA0080201205BD1205928E338F34C3E53494F3
:1002FA00FFE5339400500E1205BD900002740212FD
:10030A0000640205D2C3E53494FFE533941F120555
:10031A00BD9000025007E41200640204C474011282
:05032A0000641205094A
:01032F0022AB
:10070A0012001E14600C0470145389F01205C442BE
:0E071A00892253890F1205C4C454F04289226B
:1006C70012001E1460100470191205B770045389C4
:1006D700FB22438904221205B770045389BF2243C2
:0306E70089402225
:10047E008B3D8A3E893F1202C41205B012070A1242
:10048E0005B01206C71205B01206471205B090004D
:10049E0004120037600512077C80061205B01207A1
:1004AE008B1205B0900003120037600302075E1234
:0604BE0005B012076D22DB
:10073B008B408A41894212076DAB40AA41A9420204
:02074B00078B1A
:100647001205C46402602A12001E1460140470218B
:1006570090000A120037F58C90000B120037F58ACC
:100667002290000A120037F58D90000B120037F523
:020677008B22D4
:0F075E0012001E146006047005D28C22D28E2267
:0F076D0012001E146006047005C28C22C28E2278
:0F077C0012001E146006047005D2A922D2AB220F
:0F078B0012001E146006047005C2A922C2AB2220
:070003008B438A448945226A
:0907A8008B398A3A893B8D3C2211
:0707B1008B468A47894822AC
:03000000020238C1
:0C023800787FE4F6D8FD75815002027F4B
:10001E00BB010689828A83E0225002E722BBFE02E0
:09002E00E32289828A83E4932213
:10003700BB010CE58229F582E5833AF583E022507E
:1000470006E92582F8E622BBFE06E92582F8E222C8
:0D005700E58229F582E5833AF583E49322E2
:10006400F8BB010DE58229F582E5833AF583E8F0D2
:10007400225006E92582C8F622BBFE05E92582C87E
:02008400F22266
:10008600BB0110E58229F582E5833AF583E0F5F0B8
:10009600A3E0225009E92582F886F008E622BBFE95
:1000A6000AE92582F8E2F5F008E222E5832AF583DB
:0800B600E993F5F0A3E99322A0
:1000BE00E88FF0A4CC8BF0A42CFCE98EF0A42CFCE1
:1000CE008AF0EDA42CFCEA8EF0A4CDA8F08BF0A45F
:1000DE002DCC3825F0FDE98FF0A42CCD35F0FCEBBE
:1000EE008EF0A4FEA9F0EB8FF0A4CFC5F02ECD3983
:0F00FE00FEE43CFCEAA42DCE35F0FDE43CFC22F0
:10054E00C2D5E830E70FB2D5E4C39BFBE49AFAE4D8
:10055E0099F9E498F8EC30E717B2D5120584120138
:10056E007FE4C39BFBE49AFAE499F9E498F88003DC
:10057E0012017F30D50DE4C39FFFE49EFEE49DFD86
:04058E00E49CFC22CB
:10010D00BB010DE58229F582E5833AF58302021ADA
:10011D005007E92582F8020211BBFE07E92582F896
:10012D00020223E58229F582E5833AF58302022C4A
:06013D008A838982E4734D
:10024400020679E493A3F8E493A34003F68001F251
:1002540008DFF48029E493A3F85407240CC8C333BB
:10026400C4540F4420C8834004F456800146F6DF8A
:10027400E4800B010204081020408090074DE47EC6
:10028400019360BCA3FF543F30E509541FFEE4937F
:10029400A360010ECF54C025E060A840B8E493A346
:1002A400FAE493A3F8E493A3C8C582C8CAC583CA71
:1002B400F0A3C8C582C8CAC583CADFE9DEE780BE29
:01075D00009B
:1001430075F008758200EF2FFFEE33FECD33CDCC73
:1001530033CCC58233C5829BED9AEC99E5829840F6
:100163000CF582EE9BFEED9AFDEC99FC0FD5F0D6D3
:10017300E4CEFBE4CDFAE4CCF9A88222B800C1B9FD
:100183000059BA002DEC8BF084CFCECDFCE5F0CB3B
:10019300F97818EF2FFFEE33FEED33FDEC33FCEB74
:1001A30033FB10D703994004EB99FB0FD8E5E4F92F
:1001B300FA227818EF2FFFEE33FEED33FDEC33FC1C
:1001C300C933C910D7059BE99A4007EC9BFCE99A10
:1001D300F90FD8E0E4C9FAE4CCFB2275F010EF2F55
:1001E300FFEE33FEED33FDCC33CCC833C810D70755
:1001F3009BEC9AE899400AED9BFDEC9AFCE899F890
:0E0203000FD5F0DAE4CDFBE4CCFAE4C8F92222
:09021100E6FB08E6FA08E6F92212
:09021A00E0FBA3E0FAA3E0F922E5
:09022300E2FB08E2FA08E2F9220C
:0C022C00E493FB740193FA740293F9222E
:00000001FF
