:03000000020006F5
:03005F0002000399
:0300030002007F79
:20006200AE82AF831EBEFF011FEE4F600F7C727D001CBCFF011DEC4D70F780E822759000E6
:110082009001F41200627590FF9001F412006280EC0B
:06003500E478FFF6D8FD9F
:200013007900E94400601B7A00900097780175A000E493F2A308B8000205A0D9F4DAF275FC
:02003300A0FF2C
:20003B007800E84400600A790175A000E4F309D8FC7800E84400600C7900900001E4F0A3C3
:04005B00D8FCD9FAFA
:0D000600758107120093E58260030200037C
:040093007582002250
:00000001FF
